:100000000C940E001895FFFF1895FFFF1895FFFF41
:100010001895FFFFC9B1488145B918952FEF2DBF3D
:1000200022E02EBF2227422E2AB92FEF322E2BB9E3
:1000300024B925B92FE027B92FE328B920E820BF3C
:1000400024E02093680030926D0043984ED1439A8B
:100050005FEF1ED1E9F7F9D052E016D146D150E05A
:1000600013D150EF15D153E013D158EF11D1002720
:10007000D9D0EBD05523E1F3503F11F40260F9CF12
:10008000583509F451E1593509F452E1543809F46D
:1000900059E05B3808F0515801FD2EC0551649F360
:1000A000552E573521F4439825D1439AE2CF5F3539
:1000B00029F4512F21E05227E7D0DBCF523111F440
:1000C000006136C0563719F4512F22E0F4CF543175
:1000D00021F44298512F24E0EECF513119F4419888
:1000E000006226C0B2E0A0E02D91222311F45E93BD
:1000F0001FC0A3FFF9CFBDCF0D7F523111F40160B6
:1001000017C0513119F40F7D419A12C0543111F4C6
:10011000429A0EC0B2E0A0E004602D91251721F4B0
:1001200055245E920B7FA395A3FFF7CF02FDA0CFCE
:10013000BB27A8E03D92A4FFFDCF0F7B077FB2E075
:10014000A0E02D91222341F0220FF4E0E0E0E20F45
:1001500010FDE395C8952DD0A3FFF3CF03FD03C099
:100160002AD004FF85CFF1E0E0E03FEFE0FF382147
:10017000E1FF3921E2FF3A21E3FF3B21E4FF3C218B
:10018000E5FF3D21E6FF3E21E7FF3F213083E39578
:1001900061F704FF409A04FD409806FF02C04198B1
:1001A00068CF05FF419A05FD4198C9B1288125B95D
:1001B00060CF039431F400FF08950E7F0F7E409AC4
:1001C00008950A9407FE02C006FC04C0F4DF04FD93
:1001D00000610BC0202D2F73220FF5E0E0E0E20F4D
:1001E000C89504FF02C0E395C895BF93AF9308601C
:1001F00007FC006406FC0061202D2770122E13946A
:100200002EEF1A9419F00894221FFBCFBB27A02DC4
:10021000AA0FA295A770A85F1C9012221C92AF9102
:10022000BF910895F8942FEF25B9B2E0A0E02227FE
:100230002D93A3FFFDCFF1E0E0E02FEF2083E395C6
:10024000E9F75524D1E0789408953C983D985527D6
:100250003499FECF3599FECF359BFECF38E03599E6
:10026000FECF8894349908945795359BFECF3A95E4
:10027000B1F73599FECF359BFECF3599FECF359B33
:10028000FECF45983D9A0895152F5DEE01D0512F70
:1002900005D0DBDF5E3FE1F35A3F0895F2DF30D057
:1002A00044983C9A2FD03D982DD038E0222435999F
:1002B000FECF579510F0449802C0449A2394359B82
:1002C000FECF3A95A1F73599FECF449A20FC449889
:1002D000359BFECF3599FECF449A359BFECF3C9897
:1002E0003599FECF359BFECF089532E303D03A9582
:1002F000E9F7089524E6122E03D01A94E9F7089539
:0E03000028EC01C02AE000002A95E9F70895D4
:10040000FFFFFFFFFFFFFFFFFFFFFFFFFFFF0303F4
:1004100002021D1DFFFFFFFFFFFF0808202004044C
:10042000FFFFFFFFFFFFFFFFFFFF312A111105054F
:10043000FFFFFFFF3A313339212637231212060618
:10044000FFFF2333383E24372535141413130707D1
:10045000FFFF3F3F362D26213425322B1515FFFF98
:10046000FFFF2E34222928322730392E1616FFFF9F
:10047000FFFFFFFF2D382A2F352717171818FFFF0A
:10048000FFFF1C222B2C293B2F3D10101919FFFFB9
:10049000FFFF1E201F1F2C241A36303A1D1DFFFFA0
:1004A000FFFFFFFF3E3CFFFF3B281B1BFFFFFFFF43
:1004B000FFFFFFFF0A0A3D3D3C3CFFFFFFFFFFFF40
:1004C0000F0F0C0CFFFF0D0DA7A709090B0B010166
:1004D000FFFF11110E0E1414171706060000B2B21A
:1004E00010101E1E1212151516161818FFFF1F1FCA
:1004F000FFFF0A0A1313FFFF1B1B19191A1AFFFF2C
:00000001FF
